:020000040800F2
:10000000780600208D01000895010008970100087E
:10001000990100089B0100089D01000800000000F4
:100020000000000000000000000000009F01000828
:10003000A101000800000000A3010008A5010008BC
:10004000A7010008A7010008A7010008A7010008F0
:10005000A7010008A7010008A7010008A7010008E0
:10006000A7010008A7010008A70100087102000805
:1000700091020008B1020008D1020008F102000854
:100080001103000831030008A7010008A7010008B8
:10009000A7010008A7010008A7010008A7010008A0
:1000A000A7010008A7010008A7010008A701000890
:1000B000A7010008A701000800000000A701000830
:1000C000A70100080000000000000000A7010008D0
:1000D00000000000A7010008A701000800000000C0
:1000E000A7010008A7010008A701000800F002F816
:1000F00000F03CF80AA090E8000C82448344AAF186
:100100000107DA4501D100F031F8AFF2090EBAE883
:100110000F0013F0010F18BFFB1A43F0010318473B
:100120006005000080050000103A24BF78C878C13F
:10013000FAD8520724BF30C830C144BF04680C60ED
:10014000704700000023002400250026103A28BF35
:1001500078C1FBD8520728BF30C148BF0B60704739
:100160001FB500F037F81FBD10B510BD00F044F802
:100170001146FFF7F5FF00F067FA00F062F803B4EC
:10018000FFF7F2FF03BC00F06BF80000094880475E
:1001900009480047FEE7FEE7FEE7FEE7FEE7FEE769
:1001A000FEE7FEE7FEE7FEE704480549054A064B81
:1001B0007047000035040008ED00000878000020BA
:1001C00078060020780200207802002070477047EF
:1001D0007047000070B5064C7C44064D7D4403E03A
:1001E000206820448047241DAC42F9D170BD000036
:1001F000C4040000C4040000754600F02BF8AE46AD
:1002000005006946534620F00700854618B020B522
:10021000FFF7CAFFBDE820404FF000064FF000078F
:100220004FF000084FF0000B21F00701AC46ACE89E
:10023000C009ACE8C009ACE8C009ACE8C0098D460B
:10024000704710B50446AFF300802046BDE810406B
:10025000FFF795BF00487047180000207047000066
:1002600001491820ABBEFEE72600020070470000DF
:1002700010B50548006800F00F04034844602046AC
:10028000FFF7F4FF10BD00000000024070470000BF
:1002900010B505480068C0F3031420010249486006
:1002A0002046FFF7F3FF10BD00000240704700003A
:1002B00010B505480068C0F30324200202494860D5
:1002C0002046FFF7F3FF10BD00000240704700001A
:1002D00010B505480068C0F30334200302494860A4
:1002E0002046FFF7F3FF10BD0000024070470000FA
:1002F00010B505480068C0F3034420040249486073
:100300002046FFF7F3FF10BD0000024070470000D9
:1003100010B505480068C0F3035420050249486041
:100320002046FFF7F3FF10BD0000024070470000B9
:1003300010B505480068C0F3036420060249486010
:100340002046FFF7F3FF10BD0000024010B500F09B
:1003500001F810BD0CB500200190009033480068F2
:1003600040F480303149086000BF3048006800F434
:10037000003000900198401C0190009818B9019835
:10038000B0F5A06FF1D12948006800F4003010B139
:100390000120009001E0002000900098012843D146
:1003A0002348006840F010002149086008460068B2
:1003B00020F0070008600846006840F0020008606E
:1003C0001A4840681949486008464068486008462D
:1003D000406840F4806048600846406820F47C1023
:1003E00048600846406840F4E810486008460068E5
:1003F00040F08070086000BF0C48006800F000709A
:100400000028F9D00948406820F0030007494860F7
:100410000846406840F00200486000BF034840685A
:1004200000F00C000828F9D10CBD000000100240BB
:100430000020024010B51348006840F00100114947
:10044000086008464068104908400E494860084660
:1004500000680E4908400B4908600846006820F40F
:10046000802008600846406820F4FE0048604FF491
:100470001F008860FFF76AFF4FF0006004490860C2
:1004800010BD0000001002400000FFF8FFFFF6FE64
:1004900008ED00E001460120CA78102A06DA8A78C1
:1004A000032A03DA00220A70002002E001220A7007
:1004B00001207047012101704170704710B502465C
:1004C000FF2021B101290CD002291ED113E0114BCC
:1004D0001B689B6943F004030E4C2468A361002051
:1004E00015E00C4B1B689B6943F00803094C24681A
:1004F000A36100200BE0074B1B689B6943F01003CE
:10050000044C2468A361002001E0FF2000BF00BF6D
:1005100010BD00000000002000210170704770B580
:1005200003460C46FF200546BCB31878A8BB2046FE
:10053000FFF7B0FF88BBE078C21700EB5272D21011
:10054000A0EBC202D1B2E078072812DC586800683C
:10055000E27896000F22B24090435A6810606079AA
:10056000E278920090405A68126810435A6810600E
:1005700012E0E0780F280FDC586840688E000F22E8
:10058000B24090435A68506060798A0090405A683F
:10059000526810435A68506000BF70BD70B5034682
:1005A000FF20C9B14C78BCB94AB95C68E468CE7820
:1005B0000A4D2D78B540AC435D68EC600DE0012A32
:1005C0000BD15C68E468CE78044D2D78B54064EAC0
:1005D00005045D68EC6000E0FF2070BD05000020B0
:1005E00070B504460D460120207011480078E8B926
:1005F00035B1012D05D0022D04D0032D10D10EE010
:1006000000BF00BF29460A48FFF758FF094850F8C5
:1006100025006060002006490870207005E000BFDA
:10062000012003490870207000BF00BF204670BD44
:10063000140000200800002010B50248FFF76CFFEE
:1006400010BD0000140000201FB502A8FFF732FF04
:100650000D208DF80B0001208DF80D008DF80C0099
:1006600002216846FFF7BCFF02A96846FFF757FF63
:10067000002202A96846FFF791FF00BFFEE70000D5
:10068000A40600080000002018000000280100084F
:10069000BC060008180000206006000044010008A5
:1006A00099FFFFFF00100240080100000008014010
:0C06B000000C01400010014000000000A0
:040000050800018D61
:00000001FF
